:020000040800F2
:10000000FCFF0020C9270000AD270000AD2700003D
:10001000AD270000AD270000AD270000AD27000090
:10002000AD270000AD270000AD270000AD27000080
:10003000AD270000AD270000AD270000AD27000070
:10004000AD270000AD270000AD270000AD27000060
:10005000AD270000AD270000AD270000AD27000050
:10006000AD270000AD270000AD270000AD27000040
:10007000AD270000AD270000AD270000AD27000030
:10008000AD270000AD270000AD270000AD27000020
:10009000AD270000AD270000AD270000AD27000010
:1000A000AD270000AD270000AD270000AD27000000
:1000B000AD270000AD270000AD270000AD270000F0
:1000C000AD270000AD270000AD270000AD270000E0
:1000D000AD270000AD270000AD270000AD270000D0
:1000E000AD270000AD270000AD270000AD270000C0
:1000F000AD270000AD270000AD270000AD270000B0
:10010000AD270000AD270000AD270000AD2700009F
:10011000AD270000AD270000AD270000AD2700008F
:10012000AD270000AD270000AD270000AD2700007F
:10013000AD270000AD270000AD270000AD2700006F
:10014000AD270000AD270000AD270000AD2700005F
:1001500081B000F214010A6800F21801096809046C
:1001600042EA0101084601B07047FFFF81B000F28A
:1001700018010A68C2F3400181F00101C9B2C8B296
:1001800001B0704701480068704700BF400100207F
:1001900081B0CDF800E00B46FFF7DAFF00EA03027A
:1001A0009A4240F2000200D10122D0B2DDF800E014
:1001B00001B0704783B0CDF800E000F0FF031A09EA
:1001C000104603F00F02134614E0194A02921FE092
:1001D000184A02921CE0184A029219E0174A029249
:1001E00016E0174A029213E0164A029210E0164AED
:1001F00002920DE00028E8D00128E9D00228EAD0D8
:100200000328EBD00428ECD00528EDD00628EED04A
:10021000012212B29A40ADF8042002980A46BDF8B5
:10022000041000F0ADFDDDF800E003B0704700BF42
:1002300000080140000C0140001001400014014082
:1002400000180140001C01400020014081B0CDF8A1
:1002500000E04FF000021949884207D118490B68A5
:1002600018490A6818490A601C460BE01749884279
:1002700007D117490B6817490A6813490A601C46D9
:1002800000E0144614490C6003461846FFF76EFF61
:1002900070B91149096851B12CB905200A4C24687C
:1002A000A047002005E0611E08460446FFE7ECE792
:1002B0000120DDF800E001B0704700BF00540040AD
:1002C0003001002048010020440100200058004077
:1002D000340100204C0100203801002082B0CDF80C
:1002E00000E0029E4FF00005564CA04206D1564C4D
:1002F0002768564C2568564C25600AE0554CA042AC
:1003000006D1554C2768554C2568514C256000E0B6
:100310002F46534C276000F210054C00A4B22C600D
:10032000B9460746904635461E464E493846FFF7C1
:100330002FFF88B94A4C24686CB1B9F1000F06D17F
:100340000420434C2468A0474FF6FF7076E0A9F1E3
:1003500001008146FFE7E8E700200197294637467C
:10036000019E7C1EA04226D206F2100508EB000476
:1003700024782C603A4CD4F8009082460D463A49D5
:100380003046FFF705FF88B9354C24686CB1B9F1E8
:10039000000F06D104202E4C2468A0474FF6FF70B2
:1003A0004CE0A9F101008146FFE7E8E70AF101040A
:1003B00020462946D5E706F2100508EB000424780C
:1003C0002C60274C27680D4628493046FFF7E0FE91
:1003D00070B9234C246854B137B904201C4C2468EC
:1003E000A0474FF6FF7029E0781E0746FFE7EBE7CE
:1003F000012D05D10125346865F3492434601CE0E2
:100400000125346865F308243460154C27683546A7
:1004100017492846FFF7BCFE78B9114C24685CB137
:1004200037B904200A4C2468A0474FF6FF7005E056
:100430007C1E20460746FFE7EAE70020DDF800E0E3
:1004400002B07047005400403001002048010020F5
:100450004401002000580040340100204C010020DD
:100460003801002082000700800007008400070098
:100470000100030082B0CDF800E003461946019167
:10048000FFF780FE40F2E83100FB01F201990A60BB
:100490001F490978C1F30311C8B21E490918087829
:1004A000C0B21A1D1968C140116019490988C1F309
:1004B000022188B2174909180878C0B203F208026D
:1004C000191D0968C140116011490988C1F3C22191
:1004D00088B2104909180878C0B203F20C02191D3D
:1004E0000968C14011600A490988C1F3813188B2A5
:1004F000094909180978C8B203F2100203F20C0185
:100500000968B1FBF0F11160DDF800E002B070475E
:10051000041002406C2C0000D416000081B0016869
:10052000C1F3401001B0704781B00168C1F3801081
:1005300001B0704782B0CDF800E0CFB201469846D6
:10054000029B4FF000064FF00005C44CA14207D1BA
:10055000C34CD4F80090C34C2568C34C25600BE015
:10056000C24CA14207D1C24C2068C24C2568BE4C87
:100570002560814600E0A946BF4CC4F80090F4E134
:1005800001F210057C00A4B244F00104A4B22C6076
:10059000019616464F46019A01F214042568C5F3E8
:1005A000400464B9B44C246844B127B90320AE4C6C
:1005B0002468A047E2E1781E0746FFE7ECE7002544
:1005C0000C6865F38A240C6001F21404206800BFF3
:1005D00001F218042468240440EA04042046012B94
:1005E00005D101250C6865F349240C6004E0012560
:1005F0000C6865F308240C609F4C2568914698466A
:1006000037460E469D493046FFF7C2FD68B99A4C01
:1006100024684CB125B90320934C2468A047ADE170
:100620006C1E20460546FFE7ECE707EB090506F2DE
:10063000100424682C70B8F1010F13D18E4C21687E
:1006400030460568C5F340245CB98B4C24683CB146
:1006500021B90320844C2468A0478FE1491EFFE79D
:10066000EFE712E0844C216830460568C5F30024AA
:100670005CB9814C24683CB121B903207A4C2468D0
:10068000A0477BE1491EFFE7EFE777E101250C6812
:1006900065F38A240C6001250C6865F3CB240C609B
:1006A00001F210057C00A4B244F00104A4B22C6055
:1006B0004F4601F214042568C5F3400464B96E4C3A
:1006C000246844B127B90320674C2468A04755E14A
:1006D000781E0746FFE7ECE701F21404206800BF2C
:1006E00001F2180424682404204300250C6865F3F3
:1006F0008A240C60604C276801F214042568C5F355
:10070000800464B95C4C246844B127B90320564C7A
:100710002468A04732E1781E0746FFE7ECE7012B8B
:1007200005D101250C6865F349240C6004E001251E
:100730000C6865F308240C60951901F21004246814
:100740002C70741C151901F2100424682C70012BF4
:1007500014D1494C22680D68C5F3402464B9464C55
:10076000246844B122B903203F4C2468A04705E126
:10077000501E0246FFE7EEE7084613E03E4C2268B3
:100780000D68C5F3002464B93B4C246844B122B918
:100790000320354C2468A047F0E0501E0246FFE7D6
:1007A000EEE708460025046865F3CB240460E5E025
:1007B00001250C6865F38A240C6001F210057C00A9
:1007C000A4B244F00104A4B22C604646C84689464F
:1007D00017461D462A494846FFF7DAFC78B9264CE9
:1007E00024685CB1B8F1000F04D103201E4C2468CA
:1007F000A047C3E0A8F101008046FFE7EAE7002137
:10080000A8464A46B1463B46A9F10304A14222D27A
:10081000194C25688A4617461E4618493846FFF780
:10082000B7FC60B9144C246844B125B903200E4CC0
:100830002468A047A2E0681E0546FFE7EDE706EB47
:100840000A0507F2100424682C700AF101042146FD
:1008500033463A46D8E7084C00F014B8005400403C
:1008600030010020480100204401002000580040D1
:10087000340100204C01002038010020400003001A
:1008800002000300276801930B4616464246019971
:1008900006F214042568C5F3800464B9394C246851
:1008A00044B127B90320384C2468A04766E0781E7D
:1008B0000746FFE7ECE70025346865F38A243460D7
:1008C000CD1806F2100424682C70581C2D4C236897
:1008D0001746024606F214042568C5F3800464B97D
:1008E000284C246844B123B90320274C2468A0472E
:1008F00044E0581E0346FFE7ECE7012F07D101252E
:10090000346865F3492434601046324621E00125FD
:10091000346865F3082434601A4CD4F80080174614
:100920000D461A493046FFF733FC78B9154C246858
:100930005CB1B8F1000F04D10320134C2468A04728
:100940001CE0A8F101008046FFE7EAE729463246AD
:1009500038460D1802F2100424682C70441C0D193E
:1009600002F2100424682C7008E0B8F1010F3FF483
:1009700007AEB8F1020F3FF489AE19E7DDF800E0E9
:1009800002B070473801002044010020010003003C
:1009900081B0CDF800E0012252B23E490A6000F277
:1009A00068010B686FF0006103EA0102144603F06E
:1009B0000061C90E0B4602F00041B1F1004F02D1B7
:1009C00035490A6801E035490A6804F47021090CC8
:1009D0000E464FF6FF7104EA01010D4604F4401182
:1009E000B1F5401F0DD16FF0706102EA01010E46B2
:1009F0002A490A686FF070610A4028490A60324645
:100A000016E004F48011B1F5801F09D14FF0030105
:100A1000B140C94302EA010141F070610A4607E0B2
:100A2000610D090105FA01F1C9430A4042F0706203
:100A30002BB1610D090105FA01F10A43FFE704F04A
:100A40000041B1F1004F02D113490A6001E013499E
:100A50000A6040F2000A81464FEA8A0109EB01016F
:100A60000968B1F1FF3F10D009F134014FEA8A0360
:100A7000C91809680A4609EB0301096808461146C6
:100A8000FFF798FB0AF1010AE6E7DDF800E001B0A4
:100A9000704700BF000342421C00014004000140B7
:100AA00081B0194900EA0101084600220EE0042045
:100AB00022E0082020E010201EE020201CE0402042
:100AC0001AE0802018E040F2001015E00F4988423B
:100AD000EDD00F498842ECD00E498842EBD00E4948
:100AE0008842EAD00D498842E9D00D498842E8D0D1
:100AF0000C498842E7D010460B49096841EA0002D8
:100B000009490A6001B0704700FCFFFF000801407E
:100B1000000C014000100140001401400018014089
:100B2000001C0140002001401810024081B0026802
:100B3000C2F3401101B9FAE7011D096888B201B09A
:100B40007047FFFF83B0CDF800E003464FF0000090
:100B500026498B4206D126490C6826490A6826494F
:100B60000A600BE025498B4207D1254908682549D1
:100B70000A6821490A60044600E0044622490C60E4
:100B8000019402931846FFF761FB029B019C10B988
:100B90004FF6FF7025E00122196862F30821196001
:100BA00003F214010A68C2F3402111B14FF6FF703D
:100BB00017E025461C4615492046FFF7E9FA78B9A3
:100BC0001149096859B135B906200B4C2468A04772
:100BD0004FF6FF7005E0691E08460546FFE7EAE7A5
:100BE0000020DDF800E003B0704700BF0054004073
:100BF000300100204801002044010020005800403E
:100C0000340100204C0100203801002001000300C5
:100C100081B0CDF800E00348FFF786FCDDF800E086
:100C200001B070470048004081B0CDF800E00348B3
:100C3000FFF77CFFDDF800E001B07047004C00409A
:100C400081B0CDF800E008B413460A46C1B20448AA
:100C5000FFF744FB01B0DDF800E001B0704700BFD2
:100C60000058004081B0CDF800E00348FFF75EFF78
:100C7000DDF800E001B070470048004081B0ADF8F9
:100C800000100146BDF800000B68C3F3C01202B9A2
:100C9000FAE70A1D106001B07047FFFF81B0CDF880
:100CA00000E00348FFF73AFCDDF800E001B07047D0
:100CB0000048004081B0CDF800E00348FFF736FF60
:100CC000DDF800E001B070470050004081B0CDF881
:100CD00000E00348FFF728FCDDF800E001B07047B2
:100CE0000050004081B0CDF800E00348FFF716FC4B
:100CF000DDF800E001B070470050004081B0CDF851
:100D000000E00348FFF70AFCDDF800E001B070479F
:100D1000004C004081B0CDF800E00348FFF704FC30
:100D2000DDF800E001B07047004C004081B0CDF824
:100D300000E008B413460A46C1B20448FFF7CEFAF1
:100D400001B0DDF800E001B0704700BF0054004082
:100D500081B0CDF800E00348FFF7E6FBDDF800E0E6
:100D600001B070470044004081B0CDF800E0034876
:100D7000FFF7E8FEDDF800E001B0704700580040E2
:100D800081B0CDF800E08CB21546774B00EA030342
:100D90001E461846FFF784FEB4F1FF0F0CD1734BCB
:100DA0009D4203D14FF033333360D9E0422D03D15C
:100DB0004FF044333360D3E04FF6FF739C4214D1BD
:100DC0006A4B9D4207D14FF033333360341D4FF0EF
:100DD00033332360C4E0422D07D14FF044333360F6
:100DE000341D4FF044332360BAE00021002005F0A9
:100DF00001030BB100211DE005F0020333B105F43E
:100E0000C0730BB1082100E0042113E005F00403D6
:100E100033B105F020030BB1042100E0002109E00B
:100E200005F0080333B105F020030BB10C2100E0FD
:100E30000821FFE74E4B05EA03030BB1032009E04D
:100E400005F400730BB1022004E005F480630BB1DC
:100E50000120FFE705F00C030BB10143FFE704F0AD
:100E6000FF039BB2002B3BD0376800201FFA84F8A9
:100E700032462E4608282CD24FF0010303FA00F424
:100E800008EA0403A34222D185004FF00F03AB40D0
:100E9000DB4307EA030401FA05F344EA03031D46B2
:100EA00006F48173B3F5817F05D102F214044FF08B
:100EB00001038340236006F08203822B05D102F2F6
:100EC00010044FF00103834023602F46FFE7401CCE
:100ED000D0E717601FFA88F00F463146164602E049
:100EE0000F462946A0B2B0F1FF0F39D9331DD3F810
:100EF00000800022082A30D202F208044FF00103D9
:100F000003FA04F400EA0403A34224D195004FF04D
:100F10000F03AB40DB4308EA030807FA05F348EA8E
:100F2000030801F48173B3F5817F07D106F214053C
:100F300002F208044FF00103A3402B6001F082038A
:100F4000822B07D106F2100502F208044FF00103CC
:100F5000A3402B60FFE7521CCCE7331DC3F8008091
:100F6000DDF800E001B0704700FCFFFF140008004E
:100F70000008080081B0CDF800E00348FFF7D4FA7C
:100F8000DDF800E001B070470038014081B0CDF8D5
:100F900000E00348FFF7C2FADDF800E001B0704757
:100FA0000038014088B0CDF800E00E46554B98421D
:100FB0000DD1012464B2544B1C60544C544B1C6042
:100FC000544C554B1C60554C554B1C600FE0554B19
:100FD00098420CD1012464B2534B1C60534C4C4BCF
:100FE0001C60534C4C4B1C60524C4D4B1C6001968A
:100FF00002901046FFF7CCFC0298019E031D1B686F
:101000009CB26FF03F0304EA03039DB203AB01906F
:101010001846FFF72FFA0198059F059C464BB4FB35
:10102000F3F399B29BB245EA0304A4B2031D1C601A
:101030000024036864F30003036000223F4B9E42D8
:1010400012D87300B7FBF3F4A4B2042C02D2042329
:101050001C46FFE742EA04039AB200F220044B1C4C
:101060009BB2236091B23FE0032306FB03F4B7FB7E
:10107000F4F31FFA83F8192306FB03F5B7FBF5F326
:101080001FFA83F908FB04F409FB05F33C1BFB1A68
:101090009C4205D203237343B7FBF3F4A4B206E0EA
:1010A00019237343B7FBF3F4A4B244F4804440F62D
:1010B000FF7304EA030313B944F00104FFE744F4A7
:1010C00000439BB21A4392B200F2200540F22C1367
:1010D00001FB03F4A4B240F2E833B4FBF3F39BB298
:1010E0005B1C9BB22B6091B200F21C0319600023C1
:1010F00003600124036864F300030360DDF800E08B
:1011000008B0704700540040D4034242B9110000B7
:101110005001002095110000540100202D0D000009
:101120005801002000580040D8034242690D0000D9
:1011300059110000410C000040420F00A086010040
:1011400081B0CDF800E00348FFF7F0FCDDF800E0E7
:1011500001B070470038014081B0CDF800E008B41C
:1011600013460A46C1B20448FFF7E4F901B0DDF8BE
:1011700000E001B0704700BF0058004081B0CDF8DA
:1011800000E00348FFF7CAF9DDF800E001B070475E
:101190000044004081B0CDF800E008B413460A4690
:1011A000C1B20448FFF7C6F901B0DDF800E001B0B4
:1011B000704700BF0054004081B0CDF800E0034804
:1011C000FFF7C0FCDDF800E001B0704700540040BC
:1011D00081B0CDF800E00348FFF7A8FCDDF800E09F
:1011E00001B070470044004089B0CDF800E083466C
:1011F00098B28C46BDF824100A9E04ACADF80410D9
:10120000ADF808002046FFF735F9BDF80800BDF835
:101210000410644CA34512D101256DB2624C2560C7
:10122000624D634C2560634D634C2560634D644C97
:101230002560644D644C2560079C039456E0634C24
:10124000A34512D101256DB2614C2560614D584C0A
:101250002560614D584C2560604D594C2560604DAE
:10126000594C2560069C039440E05E4CA34512D186
:1012700001256DB25C4C25605C4D4D4C25605C4D8C
:101280004D4C25605B4D4E4C25605B4D4E4C2560B2
:10129000069C03942AE0594CA34512D101256DB256
:1012A000574C2560574D424C2560574D424C2560A8
:1012B000564D434C2560564D434C2560069C039487
:1012C00014E0544CA34511D101256DB2524C256058
:1012D000524D374C2560524D374C2560514D384C9E
:1012E0002560514D384C2560069C0394ADF80410E0
:1012F000ADF808003046FFF74BFBBDF80800BDF81D
:1013000004100BF1100500242C600BF110052C6863
:101310000C432C600BF10C0500242C6018B140F438
:10132000806080B2FFE70BF10C052C6804432C6051
:101330000BF10C060125346865F34D3434600BF174
:101340000C060125346865F3C30434600BF10C0608
:101350000125346865F3820434600BF11405002420
:101360002C60039D192465434FEA8C04B5FBF4F708
:101370006424B7FBF4F42601350964246C433C1B58
:10138000240104F232056424B5FBF4F404F00F04E4
:1013900046EA04040BF10805A4B22C60DDF800E075
:1013A00009B0704700380140380342421916000066
:1013B0005C01002041110000600100208D0F000041
:1013C00064010020750F0000680100200044004007
:1013D000C403424235160000D11100007D11000007
:1013E000510D000000480040C8034242951500001E
:1013F000650C00009D0C0000110C0000004C00402A
:10140000CC03424279150000290C0000FD0C0000BD
:10141000150D000000500040D0034242D9150000D5
:10142000B50C0000E50C0000CD0C000082B0CDF83A
:1014300000E040F20004ADF80440064C2468A047E8
:10144000BDF9041041EA000000B2DDF800E002B08E
:10145000704700BF7801002082B0CDF800E001ACF9
:10146000020A2270631C00F0FF021A70A21C1170A5
:10147000FFF7DCFF01AB064A127819460123D0B210
:10148000032200F095F8DDF800E002B0704700BFDD
:101490006E01002081B0CDF800E0019D2C4610B413
:1014A00008B493B28AB201460348FFF79DFE02B02A
:1014B000DDF800E001B070470048004081B0CDF891
:1014C00000E0019D2C4610B408B493B28AB20146E4
:1014D0000348FFF789FE02B0DDF800E001B0704775
:1014E0000044004081B0CDF800E00A4601460348C0
:1014F000FFF758FDDDF800E001B0704700540040F0
:1015000081B0CDF800E04FF0420289B2FFF738FC1D
:10151000DDF800E001B0704781B0CDF800E0044A8A
:1015200089B2FFF72DFCDDF800E001B0704700BF85
:1015300014000800A086010042F6DF67C0F2000731
:101540007F1EFDD100BF00BF00BF00BF00BF7047BE
:1015500081B0CDF800E0019D2C4610B408B493B2E0
:101560008AB201460348FFF73FFE02B0DDF800E013
:1015700001B070470038014081B0CDF800E081B281
:101580000348FFF77BFBDDF800E001B0704700BFC8
:10159000004C004081B0CDF800E081B20348FFF775
:1015A0006DFBDDF800E001B0704700BF004800406F
:1015B00082B0CDF800E040F20004ADF80440054CE4
:1015C0002468A047BDF90440044320B2DDF800E0E0
:1015D00002B070477C01002081B0CDF800E081B2FC
:1015E0000348FFF74BFBDDF800E001B0704700BF98
:1015F0000050004082B0CDF800E040F20004ADF8A9
:101600000440044C2468A047BDF90400DDF800E064
:1016100002B070478001002081B0CDF800E081B2B7
:101620000348FFF72BFBDDF800E001B0704700BF77
:101630000038014081B0CDF800E081B20348FFF7E7
:101640001DFBDDF800E001B0704700BF0044004022
:10165000024640F20000002A12D9531E6FF0FF012B
:1016600003EA0101002903D95B08401C80B2F5E7B9
:10167000020292B203F0FF0142EA010188B200E0E7
:101680000020704783B0CDF800E001AC020A227060
:10169000631C00F0FF021A70A31C0A0E1A70E31CF0
:1016A0000A0C1A70231D0A0A1A70631D01F0FF024A
:1016B0001A70FFF7BBFE01AB054A127819460123E9
:1016C000D0B20622FFF774FFDDF800E003B07047E8
:1016D0006E0100200204060841F6FF27C0F2B7079A
:1016E0007F1EFDD100BF00BF00BF00BF00BF70471D
:1016F00082B0CDF800E001AA010A1170521C00F07E
:10170000FF011170FFF792FE01AA0D49097800232D
:10171000C8B211460222FFF74BFF0DF1060208493D
:1017200009780123C8B211460122FFF763FF0DF1CA
:1017300006010978C8B2DDF800E002B0704700BFCA
:101740006E01002081B00A4681B200208DB21146A0
:10175000052805D20B1820221A70401CC0B2F7E7EA
:101760000B1800221A70401EC0B20C180A23B5FBD9
:10177000F3F203FB125292B2303222700A22B5FB0E
:10178000F2F292B295B202B902E0401EC0B2ECE7AA
:1017900001B0704703034A089A18B2FBF1F21046F1
:1017A0007047FFFFFFFFFFFF4DF2BF47C0F2010789
:1017B0007F1EFDD100BF00BF00BF00BF00BF70474C
:1017C00081B0CDF800E0002140F20000FFF744FEB8
:1017D000FFF7B2FE012140F20000FFF73DFEDDF809
:1017E00000E001B07047FFFF82B0CDF800E001AA31
:1017F000010A1170521C00F0FF011170FFF716FE74
:1018000001AA104909780023C8B211460222FFF745
:10181000CFFE0DF106020B4909780123C8B211462B
:101820000222FFF7E7FE0DF106031978C8B20202A3
:1018300092B2591C097842EA010188B2DDF800E051
:1018400002B070476E01002009490A884FF08041BC
:10185000B1FBF2F2411C09B24B001BB24FF4106114
:1018600051438A09D9B2514389090846704700BFDC
:101870006C01002082B0CDF800E001AC020A2270B9
:10188000631C00F0FF021A70A31C0A0A1A70E31C02
:1018900001F0FF021A70FFF7C9FD01AB054A12788B
:1018A00019460123D0B20422FFF782FEDDF800E0E2
:1018B00002B070476E01002044F67F77C0F2120735
:1018C0007F1EFDD100BF00BF00BF00BF00BF70473B
:1018D00001490860704700BFA80122420149086021
:1018E000704700BFAC01224201490860704700BF49
:1018F0008801224201490860704700BFB48122423A
:1019000001490860704700BFB001224201490860E8
:10191000704700BFA481224201490860704700BFA0
:10192000A081224201490860704700BF8001214226
:1019300001490860704700BFA88122420149086040
:10194000704700BF9001214281B0CDF800E00168EE
:1019500008460449FFF7C6FD0020DDF800E001B0AD
:10196000704700BF5C2A000081B0CDF800E001683C
:1019700008460449FFF7B6FD0020DDF800E001B09D
:10198000704700BF5C2A000081B0CDF800E0A9E0FC
:10199000012905D140F210016548FFF7B1FD04E0CF
:1019A00040F210016248FFF7B7FDBBE0012905D105
:1019B00040F204015F48FFF7A3FD04E040F2040198
:1019C0005C48FFF7A9FDADE0012905D142F2000115
:1019D0005948FFF795FD04E042F200015648FFF731
:1019E0009BFD9FE0012905D140F200415148FFF7DE
:1019F00087FD04E040F200414E48FFF78DFD91E085
:101A0000012905D140F600014A48FFF779FD04E0BD
:101A100040F600014748FFF77FFD83E0012905D12B
:101A200041F200014348FFF76BFD04E041F2000181
:101A30004048FFF771FD75E0012905D140F2010131
:101A40003B48FFF75DFD04E040F201013848FFF735
:101A500063FD67E0012905D140F200413648FFF7F8
:101A60004FFD04E040F200413348FFF755FD59E0D7
:101A7000012905D140F200212F48FFF741FD04E084
:101A800040F200212C48FFF747FD4BE0012905D12A
:101A900040F200112848FFF733FD04E040F2001146
:101AA0002548FFF739FD3DE0012905D140F240010D
:101AB0002248FFF725FD04E040F240011F48FFF7F0
:101AC0002BFD2FE0012905D140F280011B48FFF7D3
:101AD00017FD04E040F280011848FFF71DFD21E0EA
:101AE000012020E000283FF453AF01283FF45EAF0F
:101AF00002283FF469AF03283FF474AF04283FF491
:101B00007FAF05283FF48AAF06283FF495AF07283A
:101B1000A0D00828ACD00928B8D00A28C4D00B28F7
:101B2000D0D0DDE70020DDF800E001B0704700BF55
:101B3000000801400010014000140140000C014069
:101B400081B0CDF800E0A9E0012905D140F22001E3
:101B50006548FFF7D5FC04E040F220016248FFF73A
:101B6000DBFCBBE0012905D140F208015F48FFF72B
:101B7000C7FC04E040F208015C48FFF7CDFCADE093
:101B8000012905D144F200015948FFF7B9FC04E0EE
:101B900044F200015648FFF7BFFC9FE0012905D140
:101BA00040F200415148FFF7ABFC04E040F2004135
:101BB0004E48FFF7B1FC91E0012905D140F6000144
:101BC0004A48FFF79DFC04E040F600014748FFF754
:101BD000A3FC83E0012905D141F200014348FFF74E
:101BE0008FFC04E041F200014048FFF795FC75E0EE
:101BF000012905D141F200013D48FFF781FC04E0D5
:101C000041F200013A48FFF787FC67E0012905D15E
:101C100040F600013648FFF773FC04E040F600018F
:101C20003348FFF779FC59E0012905D140F2400122
:101C30002F48FFF765FC04E040F240012C48FFF715
:101C40006BFC4BE0012905D140F220012848FFF749
:101C500057FC04E040F220012548FFF75DFC3DE021
:101C6000012905D140F240012248FFF749FC04E078
:101C700040F240011F48FFF74FFC2FE0012905D13A
:101C800040F280011B48FFF73BFC04E040F280017A
:101C90001848FFF741FC21E0012020E000283FF434
:101CA00053AF01283FF45EAF02283FF469AF032829
:101CB0003FF474AF04283FF47FAF05283FF48AAFA8
:101CC00006283FF495AF0728A0D00828ACD00928F3
:101CD000B8D00A28C4D00B28D0D0DDE70020DDF82A
:101CE00000E001B0704700BF000801400010014053
:101CF00000140140000C014081B0CDF800E009491A
:101D000002B440F2000340F2000240F20001FFF78B
:101D1000C1FB01B0044A05490A600020DDF800E07B
:101D200001B07047C82A0000951500003C01002052
:101D300081B0CDF800E0094902B440F2000340F25E
:101D4000000240F20001FFF7B9FB01B0044A054967
:101D50000A600020DDF800E001B07047342B00007D
:101D6000351600003C01002081B0CDF800E001787C
:101D7000CCB2A0B2034C2468A0470020DDF800E0FC
:101D800001B070473C01002081B0CDF800E0094966
:101D900002B440F2000340F2000240F20001FFF7FB
:101DA0008DFB01B0044A05490A600020DDF800E01F
:101DB00001B07047342B0000351600003C010020B4
:101DC00081B0CDF800E0094902B440F2000340F2CE
:101DD000000240F20001FFF7BBFB01B0044A0549D5
:101DE0000A600020DDF800E001B07047A02B000081
:101DF000191600003C01002001490860704700BF2F
:101E00009881224201490860704700BF94812242B4
:101E100001490860704700BFB081224281B0CDF80F
:101E200000E0034C2468A047DDF800E001B07047F3
:101E300074010020026806490A60011D0A6805490C
:101E40000A6000F208010A6803490A60704700BF8F
:101E5000780100207C0100208001002000F2300188
:101E60001C310A6803490A60011D0A6802490A60B8
:101E7000704700BF84010020740100200149086000
:101E8000704700BF9881214201490860704700BF38
:101E90009C81214201490860704700BFB081224205
:101EA00001490860704700BF8C0122420149086067
:101EB000704700BFB881224201490860704700BFE7
:101EC0009401214201490860704700BF9881214276
:101ED00001490860704700BF9C81214201490860A8
:101EE000704700BFAC01224201490860704700BF43
:101EF000A801224201490860704700BFB001224298
:101F000081B0CDF800E00E46002183B2002805DA4A
:101F10000121404280B280B28FB201E098B28FB20C
:101F20003146FFF70FFC06213446B8B2002908D924
:101F300063184A1E92B2A21812781A70491E89B20A
:101F4000F4E72022227070B1002081B220464218AE
:101F50001278202A02D1491C89B2F8E74A1E92B2AF
:101F600083182D221A70DDF800E001B07047FFFFE2
:101F700083B0CDF800E041F2B011884201D80220D0
:101F80005BE041F2B011421A01922E498A4201D916
:101F9000012052E001994908019140F26000FFF7E9
:101FA000A7FBFFF751FC0290014640F2E830FFF733
:101FB000F1FB0246B0F1FF0F01D9FF2000E010460F
:101FC000C1B240F24B00FFF747FA02990120FFF738
:101FD000E1FB80B2FFF73CFB81B240F25A00FFF711
:101FE00049FC02990198FFF7D5FB80B2FFF730FB5F
:101FF00081B240F25E00FFF73DFC40F26300FFF764
:1020000077FBFFF721FC029001460120FFF7C2FB9E
:1020100080B2FFF71DFB81B240F25C00FFF72AFCA3
:1020200002990198FFF7B6FB80B2FFF711FB81B26E
:1020300040F26100FFF71EFC0020DDF800E003B075
:10204000704700BFE0C8100081B0CDF800E040F25A
:102050008900FFF74DFB00F01F00DDF800E001B044
:102060007047FFFF81B0CDF800E040F23100FFF78C
:102070003FFB032801D0002000E00120DDF800E054
:1020800001B0704781B0CDF800E040F29600FFF754
:10209000ABFBDDF800E001B07047FFFF81B0CDF889
:1020A00000E05FFA81F95FFA82FA0FE05FFA8AF1E5
:1020B0005FFA89F0FFF768FC0DE05FFA8AF15FFADA
:1020C00089F0FFF73DFD06E0012004E00028EDD097
:1020D0000128F2D0F8E7DDF800E001B07047FFFF1B
:1020E00081B0CDF800E00A490988414340F26C0014
:1020F000FFF7C8FA012140F28600FFF7ADF9402151
:1021000040F28700FFF7A8F9DDF800E001B0704762
:102110007001002081B0CDF800E06DE0072140F2B1
:102120006000FFF799F9052140F26300FFF794F989
:10213000382140F26900FFF78FF9072140F278005B
:10214000FFF78AF9052140F27900FFF785F90621AA
:1021500040F27A00FFF780F9062140F27B00FFF79A
:102160007BF950E00B2140F26000FFF775F909217F
:1021700040F26300FFF770F9782140F26900FFF741
:102180006BF90B2140F27800FFF766F9092140F264
:102190007900FFF761F90A2140F27A00FFF75CF954
:1021A0000A2140F27B00FFF757F92CE00F2140F2A3
:1021B0006000FFF751F90D2140F26300FFF74CF981
:1021C000B82140F26900FFF747F90F2140F278008B
:1021D000FFF742F90D2140F27900FFF73DF90E219A
:1021E00040F27A00FFF738F90E2140F27B00FFF74A
:1021F00033F908E0012007E000288FD00128B1D092
:102200000228D3D0F6E70020DDF800E001B07047E7
:1022100083B0CDF800E0024610460D228DF808206C
:102220000A228DF809201FE0FFF79EFD23E00278C7
:102230002AB10190FFF798FD0198401CF7E71AE0DA
:1022400002782AB10190FFF78FFD0198401CF7E753
:1022500002AA1046FFF788FD0DF109021046FFF7AC
:1022600083FD08E0062007E00029DDD00129DED04B
:102270000229E5D0F6E70020DDF800E003B0704762
:1022800081B0CDF800E00020FFF7C8FDFFF714FB98
:102290000120FFF7C3FDFFF71FFADDF800E001B0F2
:1022A0007047FFFF81B0CDF800E00446074B1A707D
:1022B0000846FFF7BFFD2046FFF7D0FD0120044C84
:1022C0002468A047DDF800E001B070476E010020EF
:1022D0007401002082B0CDF800E000208DF80500E8
:1022E000FFF7EAFAFFF7E8FA40F20F10FFF700FAFB
:1022F000EA2801D00120E5E0FFF7DEFAFFF760FAF7
:10230000FFF7DAFAFFF7D8FAFFF7D6FA40F2E5005E
:10231000FFF7EEF98DF804009DF8040000F00100CD
:10232000C0B2A8B940F2E500FFF7E2F98DF8040069
:10233000FFF73AFAFFF738FA9DF805109DF8050007
:10234000401C8DF80500642901D10220BAE0E3E7C2
:1023500040F22E00FFF748FA00F0FE0080B240F095
:10236000010081B240F22E00FFF784FAFFF71CFA59
:1023700040F20600FFF738FA5449088040F2DE00C8
:10238000FFF732FA52490880022140F23100FFF78C
:1023900063F8FFF709FA082140F23600FFF75CF80E
:1023A000FFF702FA102140F23700FFF755F8FFF768
:1023B000FBF9012140F23900FFF74EF8FFF7F4F97D
:1023C000FF2140F23E00FFF747F8FFF7EDF900214B
:1023D00040F23F00FFF740F8FFF7E6F9022140F234
:1023E0004000FFF739F8FFF7DFF9002140F2500015
:1023F000FFF740FAFFF7D8F9002140F25200FFF74B
:1024000039FAFFF7D1F9382140F25700FFF724F8E5
:10241000FFF7CAF940F2681140F26400FFF72AFAA8
:10242000FFF7C2F9C02140F26600FFF723FAFFF779
:10243000BBF9012140F27100FFF70EF8FFF7B4F984
:10244000012140F27C00FFF707F8FFF7ADF9022108
:1024500040F27E00FFF700F8FFF7A6F9002140F2F6
:102460008200FEF7F9FFFFF79FF9012140F27700A4
:10247000FEF7F2FFFFF798F98B2140F28100FEF79B
:10248000EBFFFFF791F94CF6000140F25400FFF723
:10249000F1F9FFF789F9022140F24F00FEF7DCFF66
:1024A000FFF782F940F22200FFF79EF981B2FFF7B1
:1024B0007BF9880081B240F21E00FFF7DBF9FFF7DD
:1024C00073F90020DDF800E002B070476C010020D5
:1024D0007001002081B0CDF800E08B4609E058463D
:1024E000FFF732FA0AE05846FFF73EFA06E001200D
:1024F00004E00028F3D00128F5D0F8E7DDF800E08B
:1025000001B0704781B0CDF800E011E00846FFF758
:10251000F3FB16E00846FFF737FC12E00846FFF72A
:102520004FFC0EE00846FFF703FC0AE0012008E03C
:102530000028EBD00128EDD02028EFD03028F1D0B2
:10254000F4E7DDF800E001B07047FFFF81B0154807
:10255000006840F00101134801601349134801600D
:1025600010480168124801400E4801600D4801689A
:102570006FF4802001400B4801600C4801686FF443
:10258000FE00014009480160064801686FF0A05054
:102590000140044801604FF000010648016001B0AD
:1025A000704700BF001002400000FFF0041002401E
:1025B000FFFFF6FE2C10024081B0CDF800E029228A
:1025C0000F491048FFF76EFEFFF75AFE0E48022132
:1025D000FFF71EFEFFF77EFE0220FFF79BFD40F295
:1025E000E830FFF7C5FC1420FFF77AFD0748022109
:1025F000FFF70EFEFFF760F9DDF800E001B070476D
:10260000882C00000C2C0000140000205200002038
:1026100081B04FF000094FF0000CBDEB0A0F04DC55
:10262000BDEB0B0F01DBD446EA464BF8049BBBEB3A
:102630000A0FFAD1BCEB0A0F05DDE246D9F800B06B
:102640000BF1040BF1E701B07047FFFFFFFFFFFF45
:1026500081B0CDF800E0012207210020FFF71EFD28
:10266000002201210020FFF719FD0E48014600203D
:10267000FFF730FF42F280512020FFF743FF0A4866
:102680000221FFF7C5FD44F67F77C0F2120700BFB5
:1026900000BF7F1EFDD100BF00BF00BFDDF800E01E
:1026A00001B070473415000000000020FFFFFFFF5D
:1026B00081B0CDF800E0FFF7D5FC10B1FEF73CFF8C
:1026C000F9E7FFF7DFFC2A49088000B22949FFF744
:1026D00017FC29480121FFF79BFD01212548FFF741
:1026E00097FD26480221FFF793FDFFF7ADFC244933
:1026F000087019E023480221FFF78AFD29E02248EB
:102700000221FFF785FD24E020480221FFF780FD2C
:102710001FE01F480221FFF77BFD1AE01D48022140
:10272000FFF776FD15E014E0154800780428E1D0A5
:10273000134800780528E2D0114800780628E3D035
:102740000F4800780728E4D00D4800780828E5D025
:10275000E9E74DF6FF47C0F26D077F1EFDD100BFD0
:1027600000BF00BF00BF00BFDDF800E001B0704750
:102770002E01002073000020A5000020B4000020DE
:102780002D010020B9000020C6000020E00000203C
:10279000ED000020FF00002081B01CF8019B0BF829
:1027A000019BBBEB0A0FF8D101B0704781B0FEE787
:1027B00001B0704781B002490248016001B0704722
:1027C000401901004001002000F00EF800F0B0FABE
:1027D000FFF7F0FF00F05EFAFFF73AFFFFF7ECFEBD
:1027E000FFF766FFFCE7FEE781B0CDF800E0464A60
:1027F000464B474C47494BF68030814206D9464804
:10280000006840F002014448016011E045F6C05004
:10281000814206D94048006840F001013E4801600D
:1028200006E03D4801686FF0070001403A4801604A
:10283000FFF78CFE3948036039480460394802EAE2
:1028400000013948016002F0010040B119463648E4
:10285000006800F00200002800D1F8E700E0194607
:1028600002F4803040B10B462F48006800F400307D
:10287000002800D1F8E700E00B4602F0805068B174
:102880002948006840F080512748016026480068C8
:1028900000F00050002800D1F8E7FFE702F0806068
:1028A00078B12148006840F080611F4801601146FE
:1028B0001A461D48006800F00060002800D1F8E7C3
:1028C00001E011461A4601F0807070B116480068A8
:1028D00040F080711448016011461348006800F010
:1028E000007000B9F9E70A46FFE70C48006800F0FD
:1028F0000C01900000F00C00814200D0F5E7DDF8FB
:1029000000E001B0704700BF8100010502841D0096
:10291000440601004019010000200240041002405A
:102920002C100240FFFF0F00001002402D2D2D2023
:1029300053797374656D20696E6974202D2D2D0097
:102940002D2D2D205761697420756E74696C20746B
:10295000686520636F6E66696775726174696F6E12
:10296000206F662074686520636869702069732031
:10297000636F6D706C65746564202D2D2D002D2D99
:102980002D2053656E736F72207374617274206DA5
:102990006561737572656D656E74202D2D2D000057
:1029A0000000000000000000000000000000000027
:1029B0000000000000000000000000000000000017
:1029C0000000000000000000000000000000000007
:1029D00000202D2044697374616E6365203A2000E5
:1029E000206D6D20005369676E616C206661696CB3
:1029F0002E005068617365206F7574206F662076B5
:102A0000616C6964206C696D697473005369676DEA
:102A100061204661696C2E200057726170207461DC
:102A200072676574206661696C2E00546172676517
:102A3000742069732062656C6F77206D696E696DB3
:102A4000756D20646574656374696F6E2074687257
:102A50006573686F6C642E2000FFFFFF1600000096
:102A600017000000FFFFFFFF000000000000000053
:102A70000000000000000000000000000000000056
:102A80000000000000000000000000000000000046
:102A900028080000280800000000000000000000D6
:102AA0000000000000000000000000000000000026
:102AB0000000000000000000000000000000000016
:102AC0000000000002000000380000003900000093
:102AD000FFFFFFFF000000000000000000000000FA
:102AE00000000000000000000000000000000000E6
:102AF00000000000000000000000000018080000B6
:102B000018000000000000000000000000000000AD
:102B100000000000000000000000000000000000B5
:102B200000000000000000000000000000000000A5
:102B3000300014083500000036000000FFFFFFFFE2
:102B40000000000000000000000000000000000085
:102B50000000000000000000000000000000000075
:102B6000000000000000000018080000180000002D
:102B70000000000000000000000000000000000055
:102B80000000000000000000000000000000000045
:102B90000000000000000000000000000800000825
:102BA000090000000A000000FFFFFFFF0000000016
:102BB0000000000000000000000000000000000015
:102BC0000000000000000000000000000000000005
:102BD00000000000180800001800000000000000BD
:102BE00000000000000000000000000000000000E5
:102BF00000000000000000000000000000000000D5
:102C00000000000000000000040000003D1900006A
:102C1000E9180000F5180000D1180000DD180000C8
:102C20000119000025190000311900000D190000DC
:102C300019190000C51E0000D11E0000FFFFFFFF94
:102C4000FFFFFFFFFFFFFFFFFFFFFFFFFFFFFFFF94
:102C5000FFFFFFFFFFFFFFFFFFFFFFFFFFFFFFFF84
:102C6000FFFFFFFFFFFFFFFFFFFFFFFF0000000070
:102C70000102030401020304060708090000000022
:102C80000000000000000000B91100002D0D000040
:102C90009511000000B5DFF824B0DFF824A0DFF8BC
:102CA00024C0FFF779FDDFF820B0DFF820A0DFF8BF
:102CB00020C0FFF771FD00BD704700BF000000207D
:102CC0002D0100202C290000300100203C010020B3
:102CD0007C2C0000FFFFFFFFFFFFFFFFFFFFFFFF58
:102CE000FFFFFFFFFFFFFFFFFFFFFFFFFFFFFFFFF4
:102CF000FFFFFFFFFFFFFFFFFFFFFFFFFFFFFFFFE4
:102D0000FFFFFFFFFFFFFFFFFFFFFFFFFFFFFFFFD3
:102D1000FFFFFFFFFFFFFFFFFFFFFFFFFFFFFFFFC3
:102D2000FFFFFFFFFFFFFFFFFFFFFFFFFFFFFFFFB3
:102D300000B5DFF810B0DFF810A0FFF769FC00BDA8
:102D4000704700BF0000002088010020FFFFFFFF48
:00000001FF
