:100000005DEF15F00000000000EF00F000000000C0
:0A0010000000000000000000F3D71C
:0E001C000101D8B102D08B9801D08B88120060
:0E002A000101D8B102D08B9601D08B86120056
:0E0038000101D8B102D08D9601D08D86120044
:0E0046000101D8B102D0899401D08984120042
:0E0054000101D8B102D08B9C01D08B8C120020
:0E0062000101D8B102D08B9401D08B84120022
:0E0070000101D8B102D08B9A01D08B8A120008
:0E007E000101D8B102D08B9E01D08B8E1200F2
:0E008C000101D8B102D08A9201D08A821200FE
:0E009A000101D8B102D08D9401D08D841200E6
:0E00A8000101D8B102D08F9201D08F821200D8
:0E00B6000101D8B102D08F9401D08F841200C6
:0E00C4000101D8B102D08B9801D08B881200B8
:0E00D2000101D8B102D08B9601D08B861200AE
:0E00E0000101D8B102D08A9401D08A841200A6
:0E00EE000101D8B102D08B9801D08B8812008E
:0E00FC000101D8B102D08B9601D08B86120084
:0E010A000101D8B102D08F9001D08F80120079
:0E0118000101D8B102D08B9A01D08B8A12005F
:0E0126000101D8B102D08B9801D08B88120055
:0E0134000101D8B102D08B9601D08B8612004B
:0E0142000101D8B102D08B9201D08B82120045
:0E0150000101D8B102D08B9A01D08B8A120027
:0E015E000101D8B102D08D9001D08D80120029
:10016C000F0121B302D00000FBD7D8C11CFF120035
:0E017C00ACB202D00000FCD7D8C1ADFF12001B
:0E018A000101D8B102D08B9001D08B80120001
:0E0198000101D8B102D0899001D089801200F7
:0E01A6000101D8B102D08A9001D08A801200E7
:0E01B4000101D8B102D08D9201D08D821200CF
:0E01C2000101D8B102D0899801D089881200BD
:0E01D0000101D8B102D08B9801D08B881200AB
:0E01DE000101D8B102D08B9601D08B861200A1
:0E01EC000101D8B102D0899201D0898212009F
:0E01FA000101D8B102D08B9C01D08B8C120079
:0E0208000101D8B102D08B9E01D08B8E120066
:0E0216000101D8B102D08B9801D08B88120064
:0E0224000101D8B102D08B9601D08B8612005A
:1002320068B409D01F0E6614016E0150000A03E172
:0A024200010E006E01D0006A1200E8
:10024C00F250026EF29E0500FF6A0150FE6E0050E5
:08025C00FD6E02BEF28E1200DD
:10026400C7B409D01F0EC514016E0150000A03E182
:0A027400010E006E01D0006A1200B6
:0A027E00000E82B0010E006E1200A7
:0A028800000E84B0010E006E12009B
:0C029200000E0F0121B3010E006E1200DF
:0A029E00000E80B0010E006E120089
:0A02A800000E82BA010E006E120073
:0A02B200000E82B2010E006E120071
:0A02BC00000E82B6010E006E120063
:0A02C600000E82B8010E006E120057
:0A02D000000E80B4010E006E120053
:1002DA00AECF01F0ABA202D0AB98AB8801C000F060
:0202EA00120000
:0A02EC00000E84B6010E006E120031
:1002F60046C1D4F147C1D5F148C1D6F149C1D7F1BC
:100306000101D26BD36BD351120802E1D2518E0890
:1003160008E38CDF005201E004D00101D24BD32B5D
:10032600F2D70101120ED35D02E18F0ED25D03E317
:100336007B0E006E24D0668066A020D04651471101
:10034600481149111AE0D451D511D611D7110EE131
:1003560069C1E1FF6AC1E2FF050EE66E67C100F002
:1003660068C101F070DF010E006E09D0010E0101B7
:10037600D45F000ED55BD65BD75BDED7006A120072
:100386001DCF01F00F0122A302D02299228901C0BC
:0403960000F0120061
:0A039A00000EA4BA010E006E12005E
:0A03A400000E9EBA010E006E12005A
:0A03AE00000EACB2010E006E12004A
:0A03B800000E81B0010E006E12006D
:0A03C200000E82BA010E006E120058
:0A03CC00000E82B4010E006E120054
:0A03D600000E82B6010E006E120048
:0A03E000000E82B8010E006E12003C
:0A03EA00000E82BC010E006E12002E
:0A03F400000E82B6010E006E12002A
:0A03FE00000E81B2010E006E120025
:0A040800000E82BE010E006E12000D
:0A041200000E82B6010E006E12000B
:0A041C00000E82B8010E006E1200FF
:0A042600000E82BE010E006E1200EF
:0A043000000E82BC010E006E1200E7
:0A043A00000E84B2010E006E1200E5
:0A044400000E82B8010E006E1200D7
:0A044E00000E80B2010E006E1200D5
:0A045800000E80B8010E006E1200C5
:0A046200000E84B4010E006E1200BB
:10046C0046C1D4F147C1D5F148C1D6F149C1D7F144
:10047C00A19A6686A1BA1FD00101465147114811B5
:10048C00491118E0D451D511D611D7110CE169C11D
:10049C00E1FF6AC1E2FF030EE66E67C100F068C1BE
:1004AC0001F0CEDE08D0010E0101D45F000ED55B49
:1004BC00D65BD75BDFD701016ACFD3F1D251000AEB
:1004CC0002E1668A01D0669AA19A668846C1D4F187
:1004DC0047C1D5F148C1D6F149C1D7F1A1BA1ED057
:1004EC00465147114811491118E0D451D511D61174
:1004FC00D7110CE169C1E1FF6AC1E2FF030EE66EA0
:10050C0067C100F068C101F09BDE08D0010E01014B
:10051C00D45F000ED55BD65BD75BE0D7D3C100F0C0
:02052C001200BB
:10052E00A19AD2C16AFF46C1D3F147C1D4F148C1E5
:10053E00D5F149C1D6F168A421D001014651471128
:10054E00481149111AE0D351D411D511D6110EE12B
:10055E0069C1E1FF6AC1E2FF040EE66E67C100F0F9
:10056E0068C101F06CDE010E006E3AD0010E010181
:10057E00D35F000ED45BD55BD65BDDD746C1D3F11E
:10058E0047C1D4F148C1D5F149C1D6F1A1BA21D0A4
:10059E00010146514711481149111AE0D351D411A6
:1005AE00D511D6110EE169C1E1FF6AC1E2FF040E59
:1005BE00E66E67C100F068C101F041DE010E006E0B
:1005CE000FD0010E0101D35F000ED45BD55BD65B5D
:1005DE00DDD766BC02D0006A03D06684020E006EC0
:0205EE001200F9
:1005F00042C1D4F143C1D5F144C1D6F145C1D7F1CF
:100600009E96C5869EB61FD00101425143114411EA
:10061000451118E0D451D511D611D7110CE165C19F
:10062000E1FF66C1E2FF030EE66E63C100F064C144
:1006300001F00CDE08D0010E0101D45F000ED55B85
:10064000D65BD75BDFD70101C9CFD3F1D251000A06
:1006500002E1C58A01D0C59A9E96C58842C1D4F1EF
:1006600043C1D5F144C1D6F145C1D7F19EB61ED0E4
:10067000425143114411451118E0D451D511D611FE
:10068000D7110CE165C1E1FF66C1E2FF030EE66E22
:1006900063C100F064C101F0D9DD08D0010E010191
:1006A000D45F000ED55BD65BD75BE0D7D3C100F03B
:0206B000120036
:1006B2009E96D2C1C9FF42C1D3F143C1D4F144C114
:1006C200D5F145C1D6F1C7A421D001014251431150
:1006D200441145111AE0D351D411D511D6110EE1AE
:1006E20065C1E1FF66C1E2FF040EE66E63C100F080
:1006F20064C101F0AADD010E006E3AD0010E0101C3
:10070200D35F000ED45BD55BD65BDDD742C1D3F19C
:1007120043C1D4F144C1D5F145C1D6F19EB621D031
:10072200010142514311441145111AE0D351D41130
:10073200D511D6110EE165C1E1FF66C1E2FF040EDB
:10074200E66E63C100F064C101F07FDD010E006E50
:100752000FD0010E0101D35F000ED45BD55BD65BD7
:10076200DDD7C5BC02D0006A03D0C584020E006E7C
:02077200120073
:1007740042C1D2F143C1D3F144C1D4F145C1D5F151
:10078400C582C5A21FD00101425143114411451134
:1007940018E0D251D311D411D5110CE165C1E1FF98
:1007A40066C1E2FF060EE66E63C100F064C101F0AB
:1007B4004BDD08D0010E0101D25F000ED35BD45B88
:0607C400D55BDFD7120037
:0407CA00668412002F
:1007CE0042C1D4F143C1D5F144C1D6F145C1D7F1EF
:1007DE000101D26BD36BD351120802E1D2518E08B4
:1007EE0008E339DD005201E004D00101D24BD32BD6
:1007FE00F2D70101120ED35D02E18F0ED25D03E33B
:10080E007B0E006E24D0C580C5A020D0425143116E
:10081E00441145111AE0D451D511D611D7110EE15C
:10082E0065C1E1FF66C1E2FF050EE66E63C100F031
:10083E0064C101F004DD010E006E09D0010E01014C
:10084E00D45F000ED55BD65BD75BDED7006A120095
:04085E00C58412003B
:1008620046C1D2F147C1D3F148C1D4F149C1D5F152
:10087200668266A21FD001014651471148114911F3
:1008820018E0D251D311D411D5110CE169C1E1FFA5
:100892006AC1E2FF060EE66E67C100F068C101F0B0
:1008A200D4DC08D0010E0101D25F000ED35BD45B11
:0608B200D55BDFD7120048
:0A08B800000E82BA010E006E12005D
:0A08C200000E86B0010E006E120059
:0A08CC00000E82B6010E006E12004D
:0A08D600000E82B8010E006E120041
:0A08E000000E81B4010E006E12003C
:0A08EA00000E82B6010E006E12002F
:0A08F400000E82B8010E006E120023
:0A08FE00000E86B4010E006E120019
:0A090800000E86B2010E006E120010
:100912000101C86BC96B8AC100F08BC101F095DC83
:1009220000C0C8F1000E0101C96FC8C100F0C9C101
:0409320001F01200BE
:100936000101D06BD16BC9C1CEF1CAC1CFF1C8C11B
:1009460000F0003600907FC1E1FF80C1E2FF00C0E9
:10095600E6FF7DC100F07EC101F075DC00500101AB
:10096600D013000ED113CBC100F0CCC101F0010EA3
:10097600CB5F000ECC5B0050011017E07FC1E1FF9A
:1009860080C1E2FFCEC1E9FFCFC1EAFFEECFE6FFAD
:100996007DC100F07EC101F056DC00500101D0138C
:1009A600000ED113CE4BCF2BDED7CD51000A05E179
:1009B60086C100F087C101F046DC0101CD51010A74
:1009C60005E18EC100F08FC101F03DDCD0C100F021
:0609D600D1C101F0120086
:1009DC006C0E01019A6F010E9B6FD80E9C6F010E6D
:1009EC009D6F860E966F030E976F000E986F000E1C
:1009FC00996F9A0E796F030E7A6F000E7B6F000E53
:100A0C007C6F920E756F020E766F000E776F000E74
:100A1C00786F0F01218B900E226F98849892A4AA64
:0A0A2C0003D01DCF00F0FBD712002D
:100A3600220E0C6E086A096A0A6A0B6A0C06D8B49A
:100A46001FD0D8900B320A320932083203320232F2
:100A560001320032D8A0F2D70C06D8B409D004501F
:100A660008260550092206500A2207500B22EAD70B
:100A7600045008260550092206500A2207500B2268
:020A860012005C
:100A88007C0E01019A6F010E9B6FD80E9C6F010EB0
:100A98009D6FDA0E966F020E976F000E986F000E1C
:100AA800996FA40E796F030E7A6F000E7B6F000E9C
:100AB8007C6FAE0E756F030E766F000E776F000EAB
:100AC800786FAC8A900EAB6E948E949C9EAA03D0DD
:080AD800AECF00F0FBD71200C5
:100AE000BFC100F0016A00C0C1F1FF0E0101BE15D7
:100AF000C26FC0C1C3F10DDF85C1C8F1C10EC96F9E
:100B0000010ECA6F030ECB6F000ECC6FCD6B13DFDF
:020B10001200D1
:100B12000101C66BC76BBFC1C4F1C0C1C5F1BEC183
:100B220000F00036009000807FC1E1FF80C1E2FF4B
:100B320000C0E6FF7DC100F07EC101F026EC01F0AD
:100B420000500101C613000EC713010EC15F000E53
:100B5200C25BC151C21116E094C1E1FF95C1E2FF2F
:100B6200010EE66E92C100F093C101F026EC01F095
:100B7200C4C1E1FFC5C1E2FF00C0E6FF0101C44BF1
:100B8200C52BE3D794C1E1FF95C1E2FFE66A92C1AA
:100B920000F093C101F026EC01F0C4C1E1FFC5C130
:100BA200E2FF00C0E6FF0101C351000A06E186C16F
:100BB20000F087C101F026EC01F00101C351010AE6
:100BC20006E18EC100F08FC101F026EC01F0C6C132
:080BD20000F0C7C101F01200A0
:100BDA00086A096A100E0C6E013408360936045088
:100BEA00085E0550D8A0053C095ED8B007D004506D
:100BFA0008260550D8B0053C0926D890003601369B
:060C0A000C2EEAD71200D7
:100C1000150E0C6EC60E0D6E0D2EFED70C2EFCD7CB
:040C200000001200BE
:100C2400640E01016B6F020E6C6F000E6D6F000E8F
:100C34006E6FCE0E5F6F070E606F000E616F000E59
:100C4400626F740E4B6F070E4C6F000E4D6F000EEB
:100C54004E6FF00E536F050E546FD20E556F010E8A
:100C6400566FB20E5B6F060E5C6FD20E5D6F010E97
:100C74005E6F5E0E576F080E586F000E596F000EB0
:100C84005A6F949894968B988B9694889486C79E62
:080C9400C79C380EC66E120069
:100C9C000B6A0A6A096A086A0E6A03340836045039
:100CAC00085E0550D8A0053C095E0650D8A0063C4D
:100CBC000A5E0750D8A0073C0B5EE86AD8A0010E6C
:100CCC000E5E0336070E0C6E0334083609360A36F0
:100CDC000B360E36045003A012D0085E0550D8A077
:100CEC00053C095E0650D8A0063C0A5E0750D8A009
:100CFC00073C0B5EE86AD8A0010E0E5E11D00826E8
:100D0C000550D8B0053C09260650D8B0063C0A263A
:100D1C000750D8B0073C0B26E86AD8B0010E0E2657
:100D2C0003360C2ED1D70234083609360A360B3668
:100D3C000E36045003A012D0085E0550D8A0053C16
:100D4C00095E0650D8A0063C0A5E0750D8A0073CA6
:100D5C000B5EE86AD8A0010E0E5E11D00826055075
:100D6C00D8B0053C09260650D8B0063C0A260750D8
:100D7C00D8B0073C0B26E86AD8B0010E0E26023616
:100D8C00070E0C6E0234083609360A360B360E3650
:100D9C00045002A012D0085E0550D8A0053C095E94
:100DAC000650D8A0063C0A5E0750D8A0073C0B5E44
:100DBC00E86AD8A0010E0E5E11D008260550D8B0F6
:100DCC00053C09260650D8B0063C0A260750D8B078
:100DDC00073C0B26E86AD8B0010E0E2602360C2E04
:100DEC00D1D70134083609360A360B360E36045084
:100DFC0002A012D0085E0550D8A0053C095E065032
:100E0C00D8A0063C0A5E0750D8A0073C0B5EE86AE7
:100E1C00D8A0010E0E5E11D008260550D8B0053CA6
:100E2C0009260650D8B0063C0A260750D8B0073C15
:100E3C000B26E86AD8B0010E0E260136070E0C6E92
:100E4C000134083609360A360B360E36045001A02A
:100E5C0012D0085E0550D8A0053C095E0650D8A0FB
:100E6C00063C0A5E0750D8A0073C0B5EE86AD8A087
:100E7C00010E0E5E11D008260550D8B0053C09268F
:100E8C000650D8B0063C0A260750D8B0073C0B26B3
:100E9C00E86AD8B0010E0E2601360C2ED1D70034DC
:100EAC00083609360A360B360E36045001A012D01D
:100EBC00085E0550D8A0053C095E0650D8A0063C3B
:100ECC000A5E0750D8A0073C0B5EE86AD8A0010E5A
:100EDC000E5E11D008260550D8B0053C09260650E8
:100EEC00D8B0063C0A260750D8B0073C0B26E86A57
:100EFC00D8B0010E0E260036070E0C6E00340836E4
:100F0C0009360A360B360E36045000A012D0085E95
:100F1C000550D8A0053C095E0650D8A0063C0A5ED8
:100F2C000750D8A0073C0B5EE86AD8A0010E0E5EF5
:100F3C0011D008260550D8B0053C09260650D8B06B
:100F4C00063C0A260750D8B0073C0B26E86AD8B0F6
:100F5C00010E0E2600360C2ED1D700B00ED0045048
:100F6C0008260550D8B0053C09260650D8B0063CDA
:0C0F7C000A260750D8B0073C0B261200D4
:100F880059D00101B3B102D0929201D092820F01DF
:100F9800259376D00101B3B102D0929801D09288FE
:100FA8006FD00101B3B102D0969201D0968268D079
:100FB8000101B3B102D0949601D0948661D00101A9
:100FC800B3B102D0949801D094885AD00101B3B13A
:100FD80002D0949A01D0948A53D00101B3B102D0BF
:100FE800949401D094844CD00101B3B102D093926F
:100FF80001D0938245D00101B3B102D0949E01D0B3
:10100800948E3ED00101B3B102D0949C01D0948C4F
:1010180037D00101B3B102D0949601D0948630D074
:101028000101B3B102D0949801D0948829D0010E5F
:10103800006E28D00101B251000AA3E0B251010AA2
:10104800A9E0B251020AADE0B251030AB1E0B251CF
:10105800040AB5E0B251050AB9E0B251060ABDE08A
:10106800B251070AC1E0B251080AC5E0B251090AF3
:10107800C9E0B2510A0ACDE0B2510B0AD1E0D7D784
:06108800000E006E1200D4
:10108E005DD00101B3B102D0929401D092840F01D0
:10109E0025957AD00101B3B102D0969601D09686ED
:1010AE0073D00101B3B102D0969401D096846CD066
:1010BE000101B3B102D0949601D0948665D001019E
:1010CE00B3B102D0949801D094885ED00101B3B12F
:1010DE0002D0949A01D0948A57D00101B3B102D0B4
:1010EE00989001D0988050D00101B3B102D0939462
:1010FE0001D0938449D00101B3B102D0989401D0AC
:10110E0098840F01239540D00101B3B102D098927B
:10111E0001D098820F01239337D00101B3B102D0D1
:10112E00949601D0948630D00101B3B102D0949838
:10113E0001D0948829D0010E006E28D00101B25141
:10114E00000A9FE0B251010AA5E0B251020AA9E0DD
:10115E00B251030AADE0B251040AB1E0B251050A30
:10116E00B5E0B251060AB9E0B251070ABDE0B2517C
:10117E00080AC1E0B251090AC7E0B2510A0ACDE02D
:0E118E00B2510B0AD1E0D7D7000E006E12004E
:10119C00300E0101B225006E000EB321016E000E5F
:1011AC00B421026E1C0E0024F66E000E0120F76EA8
:1011BC00000E0220F86E0900F5CF71F10900F5CF91
:1011CC0072F10900F5CF73F10900F5CF74F1040E3B
:1011DC00B225F66E000EB321F76E000EB421F86E38
:1011EC000900F5CF9EF10900F5CF9FF10900F5CF6D
:0A11FC00A0F10900F5CFA1F11200E7
:10120600090E0B6E1E0E0C6EE40E0D6E0D2EFED725
:0C1216000C2EFCD70B2EFAD700001200A3
:10122200520E0B6E2B0E0C6E000E0D6E0D2EFED797
:0C1232000C2EFCD70B2EFAD70000120087
:10123E0059D00101B3B102D0929001D092800F012A
:10124E00259176D00101B3B102D0949001D0948053
:10125E006FD00101B3B102D0969001D0968068D0C4
:10126E000101B3B102D0949601D0948661D00101F0
:10127E00B3B102D0949801D094885AD00101B3B181
:10128E0002D0949A01D0948A53D00101B3B102D006
:10129E00949201D094824CD00101B3B102D09390BC
:1012AE0001D0938045D00101B3B102D0949E01D0FC
:1012BE00948E3ED00101B3B102D0949C01D0948C97
:1012CE0037D00101B3B102D0949601D0948630D0BC
:1012DE000101B3B102D0949801D0948829D0010EA7
:1012EE00006E28D00101B251000AA3E0B251010AEA
:1012FE00A9E0B251020AADE0B251030AB1E0B25117
:10130E00040AB5E0B251050AB9E0B251060ABDE0D1
:10131E00B251070AC1E0B251080AC5E0B251090A3A
:10132E00C9E0B2510A0ACDE0B2510B0AD1E0D7D7CB
:06133E00000E006E12001B
:10134400A0C1E1FFA1C1E2FFB2C1E6FF9EC100F06E
:0A1354009FC101F026EC01F0120029
:10135E00B2C1B5F1B3C1B6F1B4C1B7F10BD0A00EA5
:10136E00C86E59DC44D0280EC86E55DC40D0040E31
:10137E00006E3FD0B5C1F6FFB6C1F7FFB7C1F8FF9B
:10138E000900F5CF01F00900F5CF02F00900F5CF05
:10139E0003F00900F5CF04F00450000A08E10350F1
:1013AE00010A05E10250860A02E10150A00AD7E0C7
:1013BE00B5C1F6FFB6C1F7FFB7C1F8FF0900F5CF0B
:1013CE0001F00900F5CF02F00900F5CF03F0090096
:1013DE00F5CF04F00450000A08E10350060A05E1B7
:1013EE0002501A0A02E10150800ABDE0C0D7000E79
:0413FE00006E12006B
:10140200B2C1B5F1B3C1B6F1B4C1B7F10BD0A00E00
:10141200C86E07DC44D0280EC86E03DC40D0040E30
:10142200006E3FD0B5C1F6FFB6C1F7FFB7C1F8FFF6
:101432000900F5CF01F00900F5CF02F00900F5CF60
:1014420003F00900F5CF04F00450000A08E103504C
:10145200010A05E10250860A02E10150A00AD7E022
:10146200B5C1F6FFB6C1F7FFB7C1F8FF0900F5CF66
:1014720001F00900F5CF02F00900F5CF03F00900F1
:10148200F5CF04F00450000A08E10350060A05E112
:1014920002501A0A02E10150800ABDE0C0D7000ED4
:0414A200006E1200C6
:1014A60027D0CF0EAF6EAC9444EC05F070D0670E2B
:1014B600AF6EAC9444EC05F06AD0CF0EAF6EAC8440
:1014C60044EC05F064D0670EAF6EAC8444EC05F0D6
:1014D6005ED0440EAF6EAC8444EC05F058D0220EBC
:1014E600AF6EAC8444EC05F052D0060E006E58D0B8
:1014F6000101000E006EB51908E10050B41905E1AE
:10150600120EB31902E1B251C00ACBE0000E006E12
:10151600B51908E10050B41905E1250EB31902E129
:10152600B251800AC4E0000E006EB51908E1005001
:10153600B41905E14B0EB31902E1B251000ABDE040
:10154600000E006EB51908E10050B41905E1960EBB
:10155600B31902E1B251000AB6E0000E006EB519E9
:1015660008E10050B41905E1E10EB31902E1B251E8
:10157600000AAFE0B551000A08E1B451010A05E1DD
:10158600B351C20A02E1B251000AA9E0AED77C0EFD
:101596004F6F010E506FD80E516F010E526F006AD9
:0215A600120031
:1015A800B2C1B5F1B3C1B6F1B4C1B7F10DD0A00E57
:1015B800C86E12EC06F045D0280EC86E12EC06F084
:1015C80040D0040E006E3FD0B5C1F6FFB6C1F7FF9C
:1015D800B7C1F8FF0900F5CF01F00900F5CF02F017
:1015E8000900F5CF03F00900F5CF04F00450000A14
:1015F80008E10350010A05E10250860A02E10150A0
:10160800A00AD5E0B5C1F6FFB6C1F7FFB7C1F8FF2C
:101618000900F5CF01F00900F5CF02F00900F5CF78
:1016280003F00900F5CF04F00450000A08E1035064
:10163800060A05E102501A0A02E10150800ABCE0DC
:08164800C0D7000E006E120075
:1016500027D0CF0EAF6EAC9444EC05F070D0670E7F
:10166000AF6EAC9444EC05F06AD0CF0EAF6EAC8494
:1016700044EC05F064D0670EAF6EAC8444EC05F02A
:101680005ED0440EAF6EAC8444EC05F058D0220E10
:10169000AF6EAC8444EC05F052D0060E006E58D00C
:1016A0000101000E006EB51908E10050B41905E102
:1016B000120EB31902E1B251C00ACBE0000E006E67
:1016C000B51908E10050B41905E1250EB31902E17E
:1016D000B251800AC4E0000E006EB51908E1005056
:1016E000B41905E14B0EB31902E1B251000ABDE095
:1016F000000E006EB51908E10050B41905E1960E10
:10170000B31902E1B251000AB6E0000E006EB5193D
:1017100008E10050B41905E1E10EB31902E1B2513C
:10172000000AAFE0B551000A08E1B451010A05E131
:10173000B351C20A02E1B251000AA9E0AED77C0E51
:101740004F6F010E506FD80E516F010E526F006A2D
:02175000120085
:1017520051C1E1FF52C1E2FFB2C1E9FFB3C1EAFFE9
:10176200EECFE6FF4FC100F050C101F026EC01F0D0
:04177200006A1200F7
:10177600B2C1F6FFB3C1F7FFB4C1F8FF0900F5CF58
:101786008AF10900F5CF8BF10900F5CF8CF109003C
:10179600F5CF8DF1040E0101B225F66E000EB321D0
:1017A600F76E000EB421F86E0900F5CF86F1090038
:1017B600F5CF87F10900F5CF88F10900F5CF89F15A
:1017C600080EB225F66E000EB321F76E000EB42198
:1017D600F86E0900F5CF8EF10900F5CF8FF10900FB
:1017E600F5CF90F10900F5CF91F10C0EB225F66E0A
:1017F600000EB321F76E000EB421F86E0900F5CF86
:101806007DF10900F5CF7EF10900F5CF7FF10900E2
:10181600F5CF80F1100EB225F66E000EB321F76EED
:10182600000EB421F86E0900F5CF92F10900F5CF4C
:1018360093F10900F5CF94F10900F5CF95F1120067
:101846003ED00F0120870D0E1F6F040E1E6F2185DF
:10185600EEEC04F083D00F012087060E1F6F820E78
:101866001E6F2185EEEC04F079D00F012087030E60
:101876001F6F400E1E6F2185EEEC04F06FD00F0136
:101886002087010E1F6FA00E1E6F2185EEEC04F05F
:1018960065D00F012087010E1F6F150E1E6F218563
:1018A600EEEC04F05BD00F0120871F6B8A0E1E6FD3
:1018B6002185EEEC04F052D0060E006E59D0000ED3
:1018C600006E0101B51908E10050B41905E1120EC8
:1018D600B31902E1B251C00AB4E0000E006EB519A8
:1018E60008E10050B41905E1250EB31902E1B25121
:1018F600800AB1E0000E006EB51908E10050B41977
:1019060005E14B0EB31902E1B251000AAEE0000E3A
:10191600006EB51908E10050B41905E1960EB31929
:1019260002E1B251000AABE0000E006EB51908E103
:101936000050B41905E1E10EB31902E1B251000AF3
:10194600A8E0B551000A08E1B451010A05E1B35116
:10195600C20A02E1B251000AA6E0AED701016C0E3E
:101966004F6F010E506FD80E516F010E526F006A05
:0219760012005D
:1019780027D0CF0EAF6EAC9444EC05F070D0670E54
:10198800AF6EAC9444EC05F06AD0CF0EAF6EAC8469
:1019980044EC05F064D0670EAF6EAC8444EC05F0FF
:1019A8005ED0440EAF6EAC8444EC05F058D0220EE5
:1019B800AF6EAC8444EC05F052D0060E006E58D0E1
:1019C8000101000E006EB51908E10050B41905E1D7
:1019D800120EB31902E1B251C00ACBE0000E006E3C
:1019E800B51908E10050B41905E1250EB31902E153
:1019F800B251800AC4E0000E006EB51908E100502B
:101A0800B41905E14B0EB31902E1B251000ABDE069
:101A1800000E006EB51908E10050B41905E1960EE4
:101A2800B31902E1B251000AB6E0000E006EB51912
:101A380008E10050B41905E1E10EB31902E1B25111
:101A4800000AAFE0B551000A08E1B451010A05E106
:101A5800B351C20A02E1B251000AA9E0AED77C0E26
:101A68004F6F010E506FD80E516F010E526F006A02
:021A780012005A
:101A7A00B3C100F0016A00C0B6F1FF0E0101B21550
:101A8A00B76FB5C100F0016A00C0B8F1FF0EB41516
:101A9A00B96F89EC04F085C1C8F1B60EC96F010EA1
:101AAA00CA6F040ECB6F000ECC6FCD6B9BEC04F0AB
:021ABA00120018
:101ABC000101B66B050EB65D0AE2B651B425E16EB6
:101ACC00000EB521E26E200EE66EB62BF3D7B651A2
:101ADC00B425E16E000EB521E26EE66AB607B6518A
:101AEC00B425B76F000EB521B86F0A0E046E000E48
:101AFC00056EB2C100F0B3C101F0EDEC05F008C009
:101B0C0000F009C001F0300E0026B7C1E1FFB8C1EA
:101B1C00E2FF00C0E6FF0A0E046E000E056EB2C1B5
:101B2C0000F0B3C101F0EDEC05F000C0B2F101C062
:101B3C00B3F1000E011802E1000E001801E102D011
:061B4C00B607CDD7120020
:101B5200B3C100F0016A00C0B8F1FF0E0101B21575
:101B6200B96FB7C100F0016A026A036A00C0BAF134
:101B7200B6C100F0B7C101F0026A036A00C0BBF14E
:101B8200B5C100F0B6C101F0B7C102F0036A00C0EE
:101B9200BCF1FF0EB415BD6F89EC04F085C1C8F12C
:101BA200B80EC96F010ECA6F060ECB6F000ECC6F56
:081BB200CD6B9BEC04F0120066
:101BBA0081C104F082C105F0000E066E076E000EA8
:101BCA00006E000E016E000E026E400E036E4EECA9
:101BDA0006F00101B251010F056E05C0B3F1B3372A
:101BEA00B391000E046E090E056E000E066E000E0D
:101BFA00076E1BEC05F0060E086E00C004F001C06B
:101C0A0005F002C006F003C007F0085007E00732EB
:101C1A00063205320432079EFF0FF8D7B3C100F02F
:101C2A00000E016E026E036E1BEC05F0060E086EC6
:101C3A0000C004F001C005F002C006F003C007F0BE
:101C4A00085007E00732063205320432079EFF0FBA
:101C5A00F8D704C000F005C001F006C002F007C0C2
:041C6A0003F0120071
:101C6E000C0E006EB2C105F0B3C106F0B4C107F0A0
:101C7E00B5C108F0005007E0053605900636073668
:101C8E000836FF0FF8D7B6C100F0B7C101F0B8C1E2
:101C9E0002F0B9C103F00332023201320032039E68
:101CAE00055000260650012207500222085003223A
:101CBE00B6C104F0B7C105F0B8C106F0B9C107F05E
:061CCE004EEC06F01200CE
:101CD4000101B66BB76BB86BB96BBA6BBB6BB55123
:101CE400000808E1B451000805E1B351000802E11D
:101CF400B25100083DE2B2C1B6F1B3C1B7F1B4C10B
:101D0400B8F1B5C1B9F1010EB65F000EB75BB85BAF
:101D1400B95B000EB615016EFF0EB715026EFF0E0D
:101D2400B815036EFF0EB915046E0450000808E1DF
:101D34000350000805E10250000802E101500008C8
:101D440008E2B933B833B733B633B99FBA4BBB2BB8
:101D5400E0D7BAC103F0026AFF0EB615006EB7C130
:101D640001F0000E0116025000120350011202D0BD
:061D7400006A016A120082
:101D7A00B3C100F0016A00C0B4F1FF0E0101B2154F
:101D8A00B56F89EC04F085C1C8F1B40EC96F010EB4
:101D9A00CA6F020ECB6F000ECC6F010ECD6F9BEC9B
:101DAA0004F085C1BEF1B60E0101BF6F010EC06F0E
:101DBA00010EC16F000EC26FC36B89EC05F0B6C18C
:041DCA0000F0120013
:101DCE000101BE6BBF6BC06B70EC05F008EC06F04A
:101DDE000101BE6BBF6B010EC06F70EC05F01200FF
:101DEE00B3C100F0016A00C0B4F1FF0E0101B215DB
:101DFE00B56F89EC04F085C1C8F1B40EC96F010E40
:101E0E00CA6F020ECB6F000ECC6F010ECD6F9BEC26
:101E1E0004F085C1BEF1B60E0101BF6F010EC06F99
:101E2E00020EC16F000EC26FC36B89EC05F0B6C116
:101E3E00B8F1000E0101B96FB8C101F0006A00C01F
:101E4E00B8F101C0B9F1B7510012000E011200C075
:081E5E00B8F101C0B9F1120056
:101E6600D00E0C6EC90E0D6E0D2EFED70C2EFCD7A5
:061E760000000000120054
:101E7C002DD0A3C1B2F1A4C1B3F1A5C1B4F1A6C1D7
:101E8C00B5F128EC0BF030D0A3C1B2F1A4C1B3F181
:101E9C00A5C1B4F1A6C1B5F153EC0AF025D0A3C18C
:101EAC00B2F1A4C1B3F1A5C1B4F1A6C1B5F1C5DCC1
:101EBC001BD0A3C1B2F1A4C1B3F1A5C1B4F1A6C1A9
:101ECC00B5F154DD11D0010E006E0ED00101A251FE
:101EDC00000ACFE0A251010AD7E0A251020ADFE0CA
:0A1EEC00A251100AE6E0EFD7120041
:101EF6001ED0A3C1B2F1A4C1B3F1A5C1B4F1AFEC38
:101F060009F020D0A3C1B2F1A4C1B3F1A5C1B4F1C7
:101F160001EC0AF017D0A3C1B2F1A4C1B3F1A5C177
:101F2600B4F1D4EC0AF00ED0010E006E0BD0010114
:101F3600A251000ADEE0A251010AE4E0A251020A1F
:061F4600EAE0F2D71200F0
:101F4C0018D0A3C1B2F1A4C1B3F11FEC09F01CD09D
:101F5C00A3C1B2F1A4C1B3F1C4EC07F015D0A3C175
:101F6C00B2F1A4C1B3F147EC08F00ED0010E006E33
:101F7C000BD00101A251000AE4E0A251010AE8E0F1
:0A1F8C00A251020AECE0F2D71200A5
:101F96000101A551000808E1A451000805E1A3517B
:101FA600110802E1A251B00803E3020E006E12D13D
:101FB600A2C101F0A3C102F0A4C103F0A5C104F0BF
:101FC600B00E015E110E025A000E035A045A01C0E9
:101FD600A2F102C0A3F103C0A4F104C0A5F101C09F
:101FE600A6F102C0A7F103C0A8F104C0A9F10450EC
:101FF600000808E10350100805E10250C80802E194
:102006000150E00803E2010E006EE4D0A933A833C4
:10201600A733A633A99F600EB26F000EB36FAADE78
:1020260000C0B2F1C7DD00C0AAF101C0ABF102C029
:10203600ACF103C0ADF1E80EB26F030EB36F000E44
:10204600B46FB56F00C0B6F101C0B7F102C0B8F108
:1020560003C0B9F109DE00C0AEF101C0AFF102C0A4
:10206600B0F103C0B1F10350000808E102500008C6
:1020760005E10150000802E10050FF0807E2FF0EEB
:102086000101AE6F000EAF6FB06FB16F01014B0E65
:10209600BE6F000EBF6FAEC1C0F170EC05F0010E51
:1020A6000101B26F000EB36FB46FB56FAAC1B6F17E
:1020B600ABC1B7F1ACC1B8F1ADC1B9F1D5DD00C066
:1020C600B2F101C0B3F1000E0101B46FB56FFFDDCF
:1020D6005A0EB26F000EB36F00C0B4F101C0B5F175
:1020E600C9DCA6C1B2F1A7C1B3F1A8C1B4F1A9C1B7
:1020F600B5F1AAC1B6F1ABC1B7F1ACC1B8F1ADC18A
:10210600B9F1B2DD00C0B2F101C0B3F1000E0101B8
:10211600B46FB56FDCDD5E0EB26F000EB36F00C03C
:10212600B4F101C0B5F1A6DC630E0101B26F000E79
:10213600B36F20DE00C0B2F13DDD00C0AAF101C0E0
:10214600ABF102C0ACF103C0ADF1010EB26F000EEF
:10215600B36FB46FB56F00C0B6F101C0B7F102C07E
:10216600B8F103C0B9F180DD00C0B2F101C0B3F12E
:10217600000E0101B46FB56FAADD5C0EB26F000EE2
:10218600B36F00C0B4F101C0B5F174DCA6C1B2F101
:10219600A7C1B3F1A8C1B4F1A9C1B5F1AAC1B6F1FD
:1021A600ABC1B7F1ACC1B8F1ADC1B9F15DDD00C0ED
:1021B600B2F101C0B3F1000E0101B46FB56F87DD56
:1021C600610EB26F000EB36F00C0B4F101C0B5F17D
:0621D60051DC006A12005A
:1021DC00C3D0600E0101BE6F000EBF6F070EC06F43
:1021EC0070EC05F0630E0101BE6F000EBF6F050EA3
:1021FC00C06F70EC05F0690E0101BE6F000EBF6F71
:10220C00380EC06F70EC05F0780E0101BE6F000E39
:10221C00BF6F070EC06F70EC05F0790E0101BE6F39
:10222C00000EBF6F050EC06F70EC05F07A0E010149
:10223C00BE6F000EBF6F060EC06F70EC05F07B0E0C
:10224C000101BE6F000EBF6F060EC06F70EC05F083
:10225C0090D0600E0101BE6F000EBF6F0B0EC06FF1
:10226C0070EC05F0630E0101BE6F000EBF6F090E1E
:10227C00C06F70EC05F0690E0101BE6F000EBF6FF0
:10228C00780EC06F70EC05F0780E0101BE6F000E79
:10229C00BF6F0B0EC06F70EC05F0790E0101BE6FB5
:1022AC00000EBF6F090EC06F70EC05F07A0E0101C5
:1022BC00BE6F000EBF6F0A0EC06F70EC05F07B0E88
:1022CC000101BE6F000EBF6F0A0EC06F70EC05F0FF
:1022DC0050D0600E0101BE6F000EBF6F0F0EC06FAD
:1022EC0070EC05F0630E0101BE6F000EBF6F0D0E9A
:1022FC00C06F70EC05F0690E0101BE6F000EBF6F70
:10230C00B80EC06F70EC05F0780E0101BE6F000EB8
:10231C00BF6F0F0EC06F70EC05F0790E0101BE6F30
:10232C00000EBF6F0D0EC06F70EC05F07A0E010140
:10233C00BE6F000EBF6F0E0EC06F70EC05F07B0E03
:10234C000101BE6F000EBF6F0E0EC06F70EC05F07A
:10235C0010D0010E006E0ED00101A251000AD8B4AB
:10236C0038D7A251010AD8B474D7A251020AB1E0ED
:06237C00F0D7006A120018
:10238200A8C185F1A5C1B2F1A6C1B3F1A7C1B4F14B
:10239200BBEC0BF0A2C1B2F1A3C1B3F1A4C1B4F181
:1023A200CEEC08F0A0C1E1FFA1C1E2FF010EE66E92
:0E23B2009EC100F09FC101F026EC01F0120068
:1023C0000101A86BA96BA2C1AAF1A3C1ABF1800E58
:1023D000A319006E800E005C02E1000EA25D0BE20C
:1023E000010EA86F000EA96FA2510008AA6FA3C129
:1023F000ABF1000EAB57AAC1B2F1ABC1B3F1A4C1AE
:10240000B4F1A5C1B5F15EEC0DF0060EA66F000E9D
:10241000A76F000E006EA751005C02E1A6510008F4
:1024200019E2A651A425E16EA751A521E26E010E85
:10243000A65D006E000EA759016E0050A425E96E3E
:102440000150A521EA6EEECFE6FF010EA65F000E59
:10245000A75BDFD7A4C1E1FFA5C1E2FF200EE66EB6
:10246000A851A9111AE0A66BA76BA651A425E96E85
:10247000A751A521EA6EEE50200A03E1A64BA72B37
:10248000F4D7010EA65F000EA75BA651A425E16E4E
:0C249000A751A521E26E2D0EE66E120091
:10249C00890E0101B26F000EB36F69DC1F0E0016BE
:0224AC0012001C
:1024AE000101A76B03EC09F003EC09F00F0EB26FFC
:1024BE00010EB36F5BDC00C0A2F1000E0101A36F31
:1024CE00000EA31902E1EA0EA21903E0010E006E3E
:1024DE0047D103EC09F074DC03EC09F003EC09F0CE
:1024EE0003EC09F0E50E0101B26F000EB36F3EDC96
:1024FE0000C0A6F1010E0101A615016E0150000AE1
:10250E0014E1E50EB26F000EB36F30DC00C0A6F121
:10251E00A3DCA2DCA7C101F00101A72B0150640AC4
:10252E0003E1020E006E1CD1E5D72E0EB26F000E27
:10253E00B36F56DCFE0E0014B46F01C0B5F1000E81
:10254E00B517B4812E0EB26F000EB36F3DEC0DF0C9
:10255E0083DC060E0101B26F000EB36F41DC00C0CA
:10256E0081F101C082F1DE0EB26F000EB36F38DC66
:10257E0000C083F101C084F1310EBE6F000EBF6F3B
:10258E00020EC06F70EC05F067DC360E0101BE6FF7
:10259E00000EBF6F080EC06F70EC05F05DDC370EDD
:1025AE000101BE6F000EBF6F100EC06F70EC05F014
:1025BE0053DC390E0101BE6F000EBF6F010EC06FEE
:1025CE0070EC05F049DC3E0E0101BE6F000EBF6FD0
:1025DE00FF0EC06F70EC05F03FDC3F0E0101BE6FC9
:1025EE00000EBF6FC06B70EC05F036DC400E0101C3
:1025FE00BE6F000EBF6F020EC06F70EC05F02CDCCC
:10260E00500E0101B26F000EB36FB46BB56B3DECA3
:10261E000DF022DC520E0101B26F000EB36FB46BDF
:10262E00B56B3DEC0DF018DC570E0101BE6F000EC0
:10263E00BF6F380EC06F70EC05F00EDC640E01013A
:10264E00B26F000EB36F680EB46F010EB56F3DEC36
:10265E000DF002DC660E0101B26F000EB36FC00EFC
:10266E00B46F000EB56F3DEC0DF033EC0FF0710E44
:10267E000101BE6F000EBF6F010EC06F70EC05F052
:10268E0033EC0FF07C0E0101BE6F000EBF6F010E1A
:10269E00C06F70EC05F033EC0FF07E0E0101BE6FD3
:1026AE00000EBF6F020EC06F70EC05F033EC0FF032
:1026BE00820E0101BE6F000EBF6FC06B70EC05F095
:1026CE0033EC0FF0770E0101BE6F000EBF6F010EDF
:1026DE00C06F70EC05F033EC0FF0810E0101BE6F90
:1026EE00000EBF6F8B0EC06F70EC05F033EC0FF069
:1026FE00540E0101B26F000EB36F000EB46FC80E10
:10270E00B56F3DEC0DF033EC0FF04F0E0101BE6FC7
:10271E00000EBF6F020EC06F70EC05F033EC0FF0C1
:10272E00220E0101B26F000EB36FF7EC0EF000C077
:10273E00A4F101C0A5F133EC0FF01E0EB26F000E26
:10274E00B36FA4C1B4F1A5C1B5F1B437B491B53727
:10275E00B437B491B5373DEC0DF033EC0FF0006AA1
:02276E00120057
:102770000101B26BA2EC09F003EC09F0010E0101BA
:0C278000B26FA2EC09F011EC09F012009D
:10278C00310E0101B26F000EB36FBDEC0EF00050B4
:0E279C00030A02E0006A02D0010E006E120075
:1027AA006C0E0101B26F000EB36FA2C100F0A3C19B
:1027BA0001F0A4C102F0A5C103F083C104F084C1F1
:1027CA0005F0000E066E076E1BEC05F000C0B4F1B2
:1027DA0001C0B5F102C0B6F103C0B7F1A9EC0DF022
:1027EA00860E0101BE6F000EBF6F010EC06F70EC46
:1027FA0005F0870E0101BE6F000EBF6F400EC06F5D
:06280A0070EC05F0120065
:10281000960E0101B26F000EB36FF7EC0EF01200CE
:10282000A2C1A5F1A3C1A6F10D0E0101A76F0A0E69
:10283000A86F3AD0A5C1B2F1A6C1B3F1A9EC0BF0D3
:102840003ED0A5C1E9FFA6C1EAFFEE520AE0A5C14C
:10285000B2F1A6C1B3F1A9EC0BF00101A54BA62B77
:10286000F0D72DD0A5C1E9FFA6C1EAFFEE520AE0DC
:10287000A5C1B2F1A6C1B3F1A9EC0BF00101A54BC2
:10288000A62BF0D70101A70EB26F010EB36FA9EC12
:102890000BF0A80E0101B26F010EB36FA9EC0BF0A3
:1028A0000ED0060E006E0CD00101A451000AC2E049
:1028B000A451010AC6E0A451020AD4E0F2D7006A8A
:0228C000120004
:1028C2000101A26B070EA36F010EA46FA6EC0FF01D
:1028D2000101A26B010EA36FA46BA6EC0FF0010124
:1028E200A26B710EA36F2C0EA46F000EA56F7BEC72
:1028F2000FF0100E0101A26F800EA36F250EA46FC0
:10290200000EA56FA66F3EEC0FF02E0E0101A26F16
:10291200010EA36F020EA46F82DF090E0B6E1E0E54
:102922000C6EE40E0D6E0D2EFED70C2EFCD70B2E68
:06293200FAD700001200BC
:102938000900F5CFE6FF0006FBE10106F9E1120008
:10294800FD0E0101A26F2B0EA36F000EA46F5D0E8A
:10295800A56F2C0EA66F000EA76F290EA86F0DDDB0
:1029680003DF830E0101A26F000EA36F020EA46F96
:1029780053DF99DD020E0101A26F2CDCE80E010184
:10298800A26F030EA36F000EA46FA56FCBEC0FF020
:10299800140E0101A26F000EA36FA46FA56F01DFD3
:1029A800620E0101A26F000EA36F020EA46F34DF46
:0629B80003EC09F012001F
:1029BE00E6DE0050000A03E008EC06F0F9D721DF4E
:1029CE0000C06FF101C070F100C0A2F101C0A3F10F
:1029DE00EA0EA46F000EA56FECDCDB0EA26F000EEC
:1029EE00A36F010EA46F15DFEA0E0101A26F000E98
:1029FE00A36F010EA46F0DDF1C0E0101A26F010E5D
:102A0E00A36F020EA46F05DF42DD00C04AF12ED087
:102A1E00210E0101A26F010EA36F020EA46FF9DE4B
:102A2E0036D0C10E0101A26F000EA36F020EA46F6D
:102A3E00F0DE2DD0270E0101A26F000EA36F020E45
:102A4E00A46FE7DE24D0150E0101A26F000EA36F56
:102A5E00020EA46FDEDE1BD0340E0101A26F000E3B
:102A6E00A36F020EA46FD5DE12D011D001014A5110
:102A7E00040ACEE04A51050AD4E04A51060ADAE0C9
:102A8E004A51070AE0E04A51080AE6E0EED7310E55
:102A9E000B6EB40E0C6E650E0D6E0D2EFED70C2E3B
:0C2AAE00FCD70B2EFAD70000000012002D
:0E2ABA003BEC16F001DF43DF7DDFFED7FFD7D8
:102C760010EE15F0350E006E020E016EC80EF66EE1
:0E2C86002A0EF76E000EF86E9CEC14F0120091
:102AC8005772617020746172676574206661696C01
:022AD8002E00CE
:0D2ADA005369676D61204661696C2E200014
:102AE7005461726765742069732062656C6F772023
:102AF7006D696E696D756D20646574656374696F62
:0E2B07006E207468726573686F6C642E200017
:102B15002D2D2D2053656E736F7220737461727441
:102B2500206D6561737572656D656E74202D2D2D33
:012B3500009F
:102B36002D2D2D205761697420756E74696C207473
:102B4600686520636F6E66696775726174696F6E1A
:102B5600206F662074686520636869702069732039
:0E2B6600636F6D706C65746564202D2D2D00FD
:102B74005068617365206F7574206F662076616C90
:0A2B84006964206C696D69747300C8
:0F2B8E00202D2044697374616E6365203A200026
:102B9D000000000000000000000000000000000028
:102BAD000000000000000000000000000000000018
:102BBD000000000000000000000000000000000008
:022BCD00000006
:052BCF00206D6D2000E7
:0D2BD4005369676E616C206661696C2E00AC
:102BE1002D2D2D2053797374656D20696E697420C4
:042BF1002D2D2D0059
:042BF50000000000DC
:042BF90000000000D8
:102BFD009801D8018A01D8015E01D8013401D801AC
:102C0D002601D8015001D8014201D801A601D801F1
:102C1D000802D801FA01D8012402D8011602D80100
:102C2D009E0200007E02000088020000BC0200002F
:102C3D00C6020000A8020000B2020000B8030000A6
:102C4D002604000030040000120400001C040000E3
:102C5D00CE0700005E08000074070000B206D20126
:042C6D00F005D2019B
:042C7100A086010038
:020000040030CA
:0E00000015137F7CF98B91FFFFC0FFE0FF40DE
:00000001FF
